S01300007573335F6D736869656C642E73726563B1
S21400200000800020A92700008D270000A5270000DB
S21400201000000000000000000000000000000000BB
S2140020200000000000000000000000008D270000F7
S21400203000000000000000008D270000FD270000C3
S2140020408D2700008D2700008D2700008D270000BB
S2140020508D2700008D270000912700008D270000A7
S2140020608D2700008D270000895A0000995A00002D
S214002070795A0000515A00008D2700008D27000075
S2140020808D2700008D2700008D2700008D2700007B
S2140020908D2700008D2700008D2700008D2700006B
S2140020A08D2700008D2700008D2700008D2700005B
S2140020B00000000010B5064C2378002B07D1054B16
S2140020C0002B02D0044800E000BF0123237010BD9F
S2140020D000030020000000000C290100084B10B58A
S2140020E0002B03D00749084800E000BF07480368F4
S2140020F0002B00D110BD064B002BFBD09847F9E70C
S21400210000000000040300200C290100F802002053
S2140021100000000010B503F071FB10BD10B502F012
S21400212079FC014B186010BD1C0300201FB5E1218F
S2140021302048490201F068F896211F48890100F0FE
S21400214035FE002003F08CFA0121142002F02CF951
S2140021500121132002F028F90121102002F024F9B1
S2140021600121112002F020F90021142002F020F9AC
S2140021700021132002F01CF90221062002F014F9B7
S21400218002F0B2FF02F09EFE0C4C206002F090FEC1
S2140021900B4B0C4A186023680B49029301230193EA
S2140021A00A4B0B4800930B4B03F022F803F068F839
S2140021B01FBDC0468C030020B01200202003002064
S2140021C0240300203D270000D5220000E121000066
S2140021D0800701007327000000207047704700004A
S2140021E010B50B4904000BF022FB002803D1432254
S2140021F0084B1A7010BD084920000BF018FB0300AE
S2140022000120002BF6D14621024A18001170F1E792
S21400221085070100280300208B07010010B5022166
S214002220062002F0C1F8062002F016F9054B00223F
S214002230012805D00122002802D01860186810BDB9
S2140022401A60FBE77C03002030B5174B8FB01A7F6F
S214002250050001A80271154A05A901921A6A5B6A6F
S2140022608260C36002F023FA0A9C211C201C08F03E
S214002270D1F8002800D00E4C0E4B1B785BB2462BD4
S2140022800DD1201C09F03CFF0B4A0C4B09F0D4F88A
S21400229009F088FF8421C90507F062FD041C0020B0
S2140022A02C600FB030BDC04630030020800901000E
S2140022B00000C84228030020CDCCCCCCCCCCFC3FC0
S2140022C00122034B00201A7192185A707047C046BC
S2140022D028030020F0B546220026334B91B01A7032
S2140022E05E70FFF7EDFF314C200002F035FA304803
S2140022F002F0E6FC237F02AA13712E4B1000029315
S214002300236A06A90493636A0193059302F058FAB8
S214002310294C200002F0D4FC284F380002F0D0FCF4
S214002320274802F0B7FC06A802F0CAFC254802F0CF
S214002330B1FC099802F0DAFC200002F0C1FC224849
S21400234002F0A8FC0A9802F0D1FC200002F0B8FCCB
S2140023501E4802F09FFC0C9808F074F802F0C6FCC9
S2140023601B4D280002F0ACFC1A4802F093FC0D98B6
S21400237008F068F802F0BAFC280002F0A1FC164843
S21400238002F088FC0E9808F05DF802F0AFFC28001A
S21400239002F096FC380002F093FC200002F090FC5D
S2140023A0300011B0F0BDC0462803002030030020E6
S2140023B09107010080090100BE080100AB0701007B
S2140023C0D0070100DF070100EE070100FD0701004E
S2140023D00C0801000F0801001E080100012313B5B8
S2140023E0074C5B42019300930B2207330021200029
S2140023F002F09AF9034A0449200007F093FA13BD45
S2140024003003002000000020DD21000070B504002D
S2140024100121142001F0CCFF0121132001F0C8FF98
S2140024202600642000F02EFA08360B4D217828008E
S214002430013400F079FDB442F7D1280000F0D1FC59
S2140024400021142001F0B4FF0021132001F0B0FF9A
S214002450322000F017FA70BDB0120020F0B504006C
S21400246085B010200D00012101F0A2FF00211120EF
S21400247001F09EFF564800F005FA2000FFF7C6FF61
S214002480544E300000F0A8FC002800D19DE030003B
S21400249000F0B8FC3C28FAD12F002870AC1C10378E
S2140024A0300000F0AFFC20700234BC42F8D14A4C39
S2140024B04A49200000F096FA29781022200000F001
S2140024C000FBA9781022200000F0FBFA29791022E0
S2140024D0200000F0F6FAA9791022200000F0F1FAA8
S2140024E0297A1022200000F0ECFAA97A10222000A7
S2140024F000F0E7FA297B1022200000F0E2FA102212
S214002500A97B200000F0DDFA3549200000F06AFAC9
S214002510300000F066FC3349200000F063FA287AA9
S21400252008F000F809F0ECFD2F4A304B08F084FF65
S21400253000222F4B09F000FA09F034FE2D4E2E49EA
S2140025403060200000F029FA306809F0D9FD022733
S21400255002000B000097200000F078FB27492000BF
S21400256000F040FAA879264E000207F08BFF039091
S214002570287907F0D7FF011C039807F0F1FBF0213C
S214002580890507F027FE1F493060200000F005FA95
S214002590306809F0B5FD009702000B00200000F03F
S2140025A055FB2000184900F01DFAFA20800000F0C4
S2140025B069F90021102001F0FBFE0121112001F035
S2140025C0F7FE0F4B186805B0F0BD10490248EAE761
S2140025D088130000B01200208C0300205B08010066
S2140025E0660801006F0801000EF3E505D847DF3FD7
S2140025F00000494068030020820801000C08010022
S2140026006C03002090080100980801009C08010057
S214002610F0B503240725AFB0060022003A4901A80A
S21400262009F0E5FF2200394902A809F0E0FF220080
S214002630374903A809F0DBFF2200364904A809F051
S214002640D6FF2A00344907A809F0D1FF22003349F3
S21400265005A809F0CCFF324800F0C3FB31493248E8
S214002660FFF7FCFE09F04CFD0B0002002F4907A8FF
S2140026700BF0AEF8FFF7D2FD2D4C0200210005A8A6
S2140026800BF0A6F802F0C6F907000200210009A820
S2140026900BF09EF83A0021000EA80BF099F801A95D
S2140026A00EA80BF0B7F807A90EA80BF0B3F803A90D
S2140026B006A80BF0C6F806A90EA80BF0ABF81D4945
S2140026C00EA80BF0A7F809A90EA80BF0A3F802A90C
S2140026D00EA80BF09FF805A90EA80BF09BF804A90E
S2140026E006A80BF0AEF806A90EA80BF093F80EA9F4
S2140026F030000BF0A6F828000EAA0F4902F022FAC6
S21400270000202FB0F0BDC046480801004B0801006D
S214002710990801004E080100510801005808010000
S214002720B012002070030020040000202D080100D5
S21400273033080100E514010037080100002370B5D6
S214002740A2B0060001A80D000193FFF77DFD041E50
S2140027500CD101A902A8FFF75BFF02A90400300014
S2140027600BF06FF802A80BF074F82870200022B067
S21400277070BD70B50E0000210400FFF749FF05008C
S21400278020000BF066F83070280070BD03BEFEE730
S214002790034B10B51B68002B00D0984710BDC046F1
S2140027A0800300200DBEFEE770B50F490F4CA14216
S2140027B004D100F085FA00F0A3F8FEE70C4D0023E4
S2140027C08D42F6D0CA18E818A24205D39042F0D03F
S2140027D0084B0949002204E0006804331060F1E762
S2140027E004C38B42FCD3E4E7000000200003002073
S2140027F07429010000030020A020002010B500F07E
S2140028007CF8002801D100F063F810BD014B186079
S2140028107047C04680030020014B18687047C046CA
S21400282084030020F7B51348012284461249134C4E
S2140028308E68636805689B0E13400192886862681C
S214002840019F920E3A4067463F6893420ED1BD42C2
S2140028500CD186420AD35B19FA254868AD00861B60
S21400286007486B437043000DC018FEBD3D001300C3
S2140028700600E3E78403002010E000E000ED00E03F
S21400288055550000F7B5041E1CD0EFF3108372B642
S2140028900D4E0E4F35683A680192DB0700D462B6DB
S2140028A0EB439C4204D964190025019B0133019334
S2140028B000F022F83B68019A9342F9D333685B1B19
S2140028C09C42F5D8F7BDC04684030020880300204C
S2140028D0074B10B51A6801321A601B68002B03D12B
S2140028E0044A13680133136000F0C8F910BDC046EF
S2140028F0840300208803002070470020704770473C
S21400290010B501F043FC09F007FEFFF7F8FF0120C1
S214002910FFF7B8FF084C200000F0E0FE200000F0B3
S2140029203DFFFFF703FCFFF7F5FB044B002BFAD047
S21400293000E000BFF7E7C046A80300200000000044
S214002940F7B506000D000C008B180193019B671B62
S2140029509C4207D0336821781B68300098470134C2
S2140029600028F3D13800FEBD70B505000C00081E27
S21400297007D00AF06EFF2B6802005B682100280073
S214002980984770BD10B5FFF7EFFF10BD10B5036890
S2140029908A685B680968984710BD10B5FFF7E4FFC2
S2140029A010BD10B503681B68984710BD10B50249E6
S2140029B0FFF7DAFF10BDC046BC08010070B5040082
S2140029C0FFF7D2FF05002000FFF7F0FF401970BDAB
S2140029D070B50500FFF7DAFF04002800FFF7E6FFF2
S2140029E0201870BD70B50400FFF7BEFF050020007C
S2140029F0FFF7DCFF401970BD70B50500FFF7D1FF8B
S214002A0004002800FFF7D2FF201870BDF0B51600AE
S214002A1000228DB002AB053301900D00DA77012E4F
S214002A2000DC0A260BAC2800310007F013F80F0074
S214002A30CBB228003100009306F086FFFBB2373396
S214002A400500013CDBB2092F02D8009B3033DBB215
S214002A502370002DE7D121000198FFF785FF0DB008
S214002A60F0BDF8B506000C00151E04D10368C9B207
S214002A701B689847F8BDD2B20A2D0DD12A0000294E
S214002A800ADA2D21FFF78DFF614207002A00300089
S214002A90FFF7BCFF3818EDE721003000FFF7B6FF60
S214002AA0E8E710B5FFF7DDFF10BD10B5002A04D12A
S214002AB00368C9B21B68984710BDD2B2FFF7A6FFDD
S214002AC0FAE770B50400FFF7F0FF05002000FFF7F7
S214002AD06DFF401970BD0000F0B51E0085B00AAB52
S214002AE01B7805000193100033003100170009F031
S214002AF039FA00287BD04D4990E0E0224C4B120674
S214002B003800310007F0C0F8002801D0494985E0B8
S214002B10E022494B12063800310007F0A1F80028E1
S214002B20F4D1002200233800310007F099F800287D
S214002B3014D02D212800FFF734FF80231B060290B7
S214002B40F618002400203D49019B9C4208DA00222A
S214002B503B4B013408F03CF8E4B2F5E70290F0E7AE
S214002B6033003A0007F024FD0F00060007F0DAF8FD
S214002B700A22039001002800FFF748FF029BC418B2
S214002B80019B002B4ED0039809F082FA02000B003E
S214002B903000390008F0D0FE06000F0028002E2175
S214002BA0FFF7FFFE2418019B002B3BD0244B00228E
S214002BB03000390008F040FC0F00060007F0B2F8BD
S214002BC00A22010002902800FFF720FF241802982E
S214002BD009F05EFA0B0002003900300008F0ACFE87
S214002BE0019B0600013BDBB20F000193DBE70122ED
S214002BF0740064085242134B3800210009F0B2F901
S214002C00002800D079E701220E4B524238002100FE
S214002C1007F030F8002800D06FE70B492800FFF7D0
S214002C20A3FE0400200005B0F0BDC046B8080100B1
S214002C30FFFFEF41B4080100FFFFEFC10000E03FD7
S214002C4000002440FFFFEF7FB008010037B51D00ED
S214002C506B461B7E00932B00FFF73EFF3EBD000039
S214002C60014B18607047C0460C0000200122024B42
S214002C7052421A607047C0460C000020054A10B544
S214002C801368591C05D0013B1360002B01D1024B81
S214002C90984710BD0C000020112901000249034B83
S214002CA04A681A42FCD1704700180040FD07000031
S214002CB00E2302490A781A42FCD17047380C0040AD
S214002CC08422F8B5294B2A4D5A6040236A690221AE
S214002CD013436B6180230122DB059A7198780143C8
S214002CE0997099791142FCD00121224C9A71224B9D
S214002CF0227022780A4202D062681A42F9D11F4B2B
S214002D001F4A5A61022259690A435A610122D96848
S214002D101142FCD01B4B1C4E0227F362FFF7C8FF84
S214002D2000231A4A33631370FFF7C2FF184B1F7055
S214002D30FFF7BEFF174A13783B42FCD001232B71E6
S214002D40154D2562FFF7AAFF2563FFF7A7FF0C22A4
S214002D50337D93431A000423134333750F4BE3620A
S214002D60FFF79CFF0E4A0F4B1A60F8BD004000416B
S214002D700004004000180040FD070000001000405E
S214002D801C040000710B0000000C0040340C0040D6
S214002D90280C00403C0C004008030200060101001D
S214002DA0006CDC02840000200120704710B5036828
S214002DB0014A1B6A984710BD1304000010B50400B2
S214002DC0006902F04EFF2000143002F0DFFE200003
S214002DD05C3002F0DBFE10BD10B5143002F0EAFEE7
S214002DE010BD10B5040020005C3002F0E3FE0028A1
S214002DF0F9D1206902F04AFF10BD10B55C3002F030
S214002E00DFFE10BD70B5050004001435280002F082
S214002E10C1FE2300A8331B780600FF2B0AD028002B
S214002E2002F0CEFE0A2805DD2300B434B0331B685A
S214002E3022681A60300070BD10B5143002F0CEFE65
S214002E4010BD0000F7B51D0008AB1B78040000930A
S214002E5009AB1B781600019300234360FA239B00FE
S214002E6083600E4B0F0008330360143002F078FEC8
S214002E7020005C3002F074FE6A4623001278A43309
S214002E8027619A706A4612791E70DA7022005D70A9
S214002E90FF23A832200013701374FEBDC008010083
S214002EA070B50400006902F0FDFE002819D0250068
S214002EB0206902F00CFF14350100280002F05BFECA
S214002EC02300A8331B78FF2B0BD0280002F078FED7
S214002ED0092806DC23002200AC33B4321B681268D3
S214002EE01A60206902F0EEFE00280DD025005C3541
S214002EF0280002F05FFE002812D0280002F04AFEEA
S214002F00C1B2206902F0E7FE206902F0D0FE002878
S214002F1005D0206902F0CFFE206902F0BFFE70BD2A
S214002F20206902F0E4FEEFE7F8B5040000690E0041
S214002F30250002F0C7FE5C35002820D13F27280078
S214002F4002F056FE00282DD0EFF310830122134224
S214002F500CD1EFF305833B40F1D0103B5BB2002B66
S214002F6017DB9B08C033144A9B009B58206902F06D
S214002F70A9FE0028E3D02000FFF792FFDFE7280035
S214002F8002F018FE0028D9D13100206902F0A3FE15
S214002F900FE00F221340083B9B08084A9B009B1833
S214002FA01B68E3E72800310002F0E5FD206902F027
S214002FB09AFE0120F8BDC04600E100E01CED00E0EE
S214002FC0F02001403039484248417047F0231B0149
S214002FD01940802306209B0099420AD00133FF3314
S214002FE00130994205D0802302385B00994200D018
S214002FF0002070470F2001400020012903D002392D
S214003000481E8141481C70470300F0B50400A433F5
S21400301085B018780F000E21150001F033FA230052
S214003020A53318780E2101F02DFA2300A733039359
S2140030301B78022B07D12300B8331878FF2802D05C
S2140030400E2101F01FFA2600A8363078FF281AD085
S214003050012101F0A9F90C2133781F4A59432000B9
S2140030608B5C5218517801221C4EDB01AC309E1945
S21400307006601B488A401B1821002000B431B0307F
S21400308003600A601A6001223B001100206902F00A
S2140030903DFF29002000FFF799FF290006002000C9
S2140030A0FFF7A8FF290007002000FFF789FF3B0075
S2140030B0009031002069012202F0A7FD2300A6330C
S2140030C01A78039B2069197802F0B9FD206902F08E
S2140030D0D4FD05B0F0BDC046900C01001828004095
S2140030E0142800403F20704713B56B460268D9711C
S2140030F00733546819000122A04716BD10B50221F7
S214003100006900F031FC10BD10B50321006900F025
S21400311041FC10BD10B5130004000A00006903212D
S21400312000F032FD002801D10123636010BD0000CD
S21400313010B5054C23685A1C04D103685B69984790
S21400314003002060180010BD58000020074B020046
S214003150186810B5411C03D0012252421A6010BDF7
S2140031600221106900F002FDF9E7C0465800002071
S21400317010B503783A22023303700249024800F081
S214003180AFFD10BD1C000020A803002010B501787C
S214003190030042780020A12908D1212A05D11A3A35
S2140031A01649174800F09CFD012010BD2129FCD1CE
S2140031B0202A11D1193A1149114800F02FFC962205
S2140031C00E4BD2001968914203D10124D8790440ED
S2140031D00ED0FFF74BFD0EE0222A03D19A78074B5C
S2140031E0DA71ECE7232AE0D15A88064B1A60DCE74E
S2140031F0FA20FFF735FD0020D7E7C0461400002070
S214003200A8030020100000207047000010B5FFF74C
S21400321003FBF423FF330024984207D9044B0A200B
S214003220DC79631E9C41E4B2FFF72CFB200010BD46
S21400323014000020FA220021054B92009A60054AED
S214003240596008321A60044A19761A617047C046F7
S2140032508C030020F4080100A803002030B50F25D9
S214003260CB1D013902002A40140000093034092A17
S21400327001DD373214001C70013B8B42F2D130BDA9
S21400328070B582291FD1C3B22C4D5A01AA18916974
S2140032902B4C80010C40C0218905214391612949AE
S2140032A008330818802150612A685B01D018047919
S2140032B04942214301717020995C81430800302106
S2140032C00143995470BD0029FCD1C024C1B21B4EE5
S2140032D04B01F3189A681A4DA4052A4022439A60B7
S2140032E0194A800110180A0058603068072608320C
S2140032F05201115CB1430E0001213143115499690A
S2140033000D402C439C6170240E495961115CA14309
S2140033100C0010212143115499680C4C82180C4063
S21400332080214903214399609968890B8903996034
S214003330402351790B435371C4E7C0466008002010
S214003340FFFFFF8FD403002094050020FF3F00F00E
S21400335070B50400012320CC00212A7820001343F6
S21400336080222B70520009F05DF9AB78DB07FCD4A5
S2140033706C6270BD1F22144B70B51B68590B9C0CF9
S2140033809B0111405B0F22401F2900D11A391F2ACA
S21400339000D1023A072B00D1043B1F2500688E019E
S2140033A0048D0A492A40214031430185018D1400CD
S2140033B00A00AA4322430285028D1903044B1340D8
S2140033C00B43038570BDC046206080003FF8FFFFBA
S2140033D0FF8FFFFFEFF3108303600123436072B695
S2140033E070470368002B02D162B6BFF36F8F704739
S2140033F037B5056904006846002D14D1FFF7EAFFCB
S214003400019B621D013B02D3D57FEDB2FAE7684609
S2140034100193FFF7E6FF002D01D100203EBD206A94
S214003420E369C01AFAE7FFF7D5FF22000025019BE3
S2140034303432013B02D31578EDB2FAE768460193C1
S214003440FFF7CFFF002DE8D0206BE36AE9E7000026
S214003450F0B501254668037A31685A018C18FF34A6
S214003460A77AB2183D43A572C468094D9068A404B3
S214003470284024092043906090680833800B80031E
S214003480906040225B01CB1819790A431A71F0BD8F
S214003490FF3F00F0F7B5036904000E00170068460A
S2140034A0002B3DD1FFF796FF019B611D013B5A1C87
S2140034B00CD0CD7F5A1EEDB2002D05D16846019383
S2140034C0FFF78FFF2800FEBD1300F0E76846019364
S2140034D00025FFF786FFE369AF4202D0226A9342D7
S2140034E057D3226A9342EDD10023E361013323616F
S2140034F06846FFF76FFF22000021019B671D013B16
S2140035003532581CDAD0F97710785E1E002805D0C0
S214003510117020000193FFF79BFFECE73300F0E704
S214003520FFF758FF2100019B3431013B5A1C06D09F
S2140035300D785A1EEDB2002DC0D01300F6E768468F
S21400354001930025FFF74DFFE36ABD4202D0226BD0
S214003550934226D3226B9342B4D100236846E3629B
S2140035602361FFF737FF270022000021019B343735
S214003570013B3532581CA1D0397010785E1E0028E9
S21400358005D0117020000193FFF762FFEBE73300D0
S214003590F0E75A1CE261A269D3181B78735501350F
S2140035A099E75A1CE262A26AD3181B787355013554
S2140035B0CAE7F7B5027A43681100040008311868B4
S2140035C049014118C879C00727D501255201CD7198
S2140035D09B189A6861699204920C002921D1226294
S2140035E0226A002A3ED0A26A656168465A60FFF7E2
S2140035F0F1FE27002100019B661D013B3437353163
S2140036005A1C2BD0F5773A78581ED2B2002A05D02D
S214003610019368460D70FFF7E4FEF7BD0A700300DD
S214003620EEE72263226B002A1CD000226261A269A8
S21400363068465A60FFF7CEFE26002100019B34360E
S214003640013B671D35315A1C08D03570FA7F581E6D
S214003650D2B2002ADCD10A700300F4E76846019370
S214003660FFF7BFFE2000FFF7F3FED6E737B56B4641
S214003670DC1D00230D0020002370FFF779FD2B686A
S2140036801818286002F0E4FC210002F09DFC2B686C
S2140036901818286020783EBD03290ED180220E4BD4
S2140036A062311B68FF31585C524202435A5468220A
S2140036B06339FF39FF32995470470129FCD18022C3
S2140036C0054B24311B68FF31585C524202435A5462
S2140036D02339FF392822EDE76008002070B5002462
S2140036E0264B0121050015201C7000F05DFE01210F
S2140036F0152000F05DFE224B012114201C7000F006
S21400370053FE0121142000F053FE01231D4A182009
S214003710916940340B4393610F2100F0B3FE0F21F3
S214003720192000F0AFFE184B1C601A682242FCD02D
S2140037301648FFF76BF8164E3000FFF709FE30000C
S214003740FFF718FE7F213368C1201A7880000A40F0
S2140037501A70042219780F4E0A430C211A701A891F
S2140037608A431A810C4A11583140115014600222C3
S21400377019780A431A7001232B7070BDC903002004
S214003780C803002000040040901800406D4100006F
S21400379060080020FFFF00FF00E100E0007800283E
S2140037A010D00121084B1B681A898A431A81082207
S2140037B0198B0A431A830422198B0A431A830022A0
S2140037C0024B1A607047C046600800205808002068
S2140037D010B5104A93699B0B9B03936113680222F2
S2140037E0FF331A729879823A02439A711A7A9207CC
S2140037F0FCD582227F24D205937A2140A343080079
S2140038001900802301439172917A5B420B439372B5
S21400381010BDC0466008002010B50B790C00002BC8
S2140038200CD10800FFF7B2FC002801D0012010BD23
S214003830094A93699B0B9B039361F7E702F008FC28
S214003840210002F0F4FB0028F0D1034A93699B0B99
S2140038509B039361EBE7C04660080020F7B50D00B8
S214003860832A19D1CBB2324C5A01A2189169314839
S214003870AD010840C0218905014391612E492068A9
S2140038804D197021083355615B011A5C8A4311009B
S21400389040220A431A54F7BD022A44D18B000193F2
S2140038A0264B8A00D658002EF5D1382002F050F963
S2140038B0234B1F4F036080235B00C360431D0662DB
S2140038C0856006614661C66104004760DE77C662B1
S2140038D0066380202F331E7040005E7008F052FE94
S2140038E00600A0618020400008F04CFEEDB26B019F
S2140038F0A062FB189A680F4907201140C022920563
S2140039000A439A603A6808356D01A95C814308004D
S21400391003210143A95420005E60FFF799FD074B81
S214003920019AD450B7E711002800FFF7A9FCB2E7C8
S21400393060080020FFFFFF8FD4030020AC030020A8
S2140039402009010070B505000124064BA200D258DC
S214003950002A05D021002800FFF780FF0134F4E795
S21400396070BDC0465C000020084B8A00D05810B5D9
S214003970002803D003689B68984710BDC9B2044B63
S2140039804901591888688004800CF6E7AC030020CB
S2140039906008002010B50C00FFF7E6FF00280CD0EA
S2140039A0064BE4B21B68083464011C198023627954
S2140039B05B42134363710223E37110BD600800206D
S2140039C070B5134BCCB2134A60018901591813180D
S2140039D059609968104D08340D40802189022943AA
S2140039E0402599609968890B89039960116863017D
S2140039F0CB181E7935431D719D796D06FCD5640183
S214003A000919CB79DB07FCD512189068C0B270BDD7
S214003A109405002060080020FF3F00F070B51400F9
S214003A2040220B4B0D001B68FF3359790A435A712D
S214003A300021FFF7C5FFA04200D92000002305495A
S214003A40A34203D05A5CEA540133F9E770BDC0467E
S214003A50600800209405002010B5C9B20B48490143
S214003A60421893689B049B0C3F2B0BDD9468403BED
S214003A709B04A40B9B0CA403234393604118886803
S214003A80C0B210BD93689B0B9B03F6E7600800204E
S214003A90F0B51C00304B85B01B6806000D00019287
S214003AA0002B55D02D4F3978C9B2002902D11420E9
S214003AB000F07EFC64233B70294BAA00D0580028F7
S214003AC008D0036822005B6801999847040020002C
S214003AD005B0F0BD29003000FFF746FF844204D948
S214003AE029003000FFF740FF040029003000FFF7F0
S214003AF0B3FF0121EBB21B4F03935B010293029AC3
S214003B003B6801989B18FF335A7A0A4316495A7243
S214003B10AB01C918220008F06AFD002CD7D0290096
S214003B203000FFF721FF0028D1D14021039B3A68DF
S214003B3008335B01D3181879014319710121D97133
S214003B400121029BD318FF339A7A0A439A72BEE782
S214003B5001246442BBE7C04658080020C803002082
S214003B60AC030020600800209405002013B56B46C7
S214003B70DC1D22000123FFF78BFF012801D12078EE
S214003B8016BD01204042FBE7F0B51E003A4B85B05B
S214003B901B680F000192002B3FD08023DB019E4262
S214003BA03BD8364C2178C9B2002902D1152000F046
S214003BB0FFFB64230025324A2370BB01D31802930F
S214003BC0002E2CD02F4B1B680393FF233B401C007A
S214003BD000930834039B64011C19A379DB0921D0E8
S214003BE0294B2A49186805F0AFFE294B1721584380
S214003BF005F0AAFE274BE279920713D4DA5D002A75
S214003C0001D10138F7D20122DA55009B5A011D4B2B
S214003C109B189A69920B92039A6101256D422800BF
S214003C2005B0F0BD00221B4B3400DA553F2E00D9FC
S214003C303F2422000199029808F0D9FC009BA104B9
S214003C405A01104B890C9B18029A2D195A619A69D1
S214003C50361B920B92030A439A61009B039A083321
S214003C605B01D3180222DA715979823A0A435A71F3
S214003C70019B1B190193A3E758080020C9030020E5
S214003C80D4030020600800208400002040420F007B
S214003C9070110100CB03002070B50D001C000D4E06
S214003CA0AB01F61811003000220008F0A0FCEDB2BF
S214003CB009496D014D196E61AB69084A2000134031
S214003CC0AB61AB69A2049B0B920C9B031343AB61E5
S214003CD070BDC046D403002060080020FF3F00F0FF
S214003CE0F7B5104B01901B780F001500002B0CD178
S214003CF00D4B16001C78002C09D00C4E0C4834884E
S214003D000019641908F073FC34802800FEBD002EEC
S214003D10FBD03A19330000210198FFF7BDFF2418A5
S214003D20361AF4E7540700205508002056080020ED
S214003D3055070020F8B5002000AF0E001500012A38
S214003D4026DDD31D6A46DB08DB00D31A9D46080035
S214003D5009F07FFD6C4603230021013040002070EF
S214003D6063705A1ED2B295420BDD3078002808D018
S214003D700136A0549D4203D0E1540233DBB2F0E793
S214003D802A0021000348FFF7ABFF431E9841C0B24C
S214003D90BD46F8BDA8030020F0B50027012687B071
S214003DA01E4B009102A91E7005000297FFF75EFCED
S214003DB003AC019009223900200008F033FC0923E7
S214003DC02370022363709E33E3715A332372029B7F
S214003DD06671093363806B461B7923710F4B1F7026
S214003DE0009B092B07D11A0021002800FFF778FF57
S214003DF0012007B0F0BD0A4B09221E70094E2100B3
S214003E00280002973780FFF76BFF02A92800FFF70C
S214003E102DFC034B32881F700349E6E75407002049
S214003E2055080020560800205507002070B5CE78AB
S214003E3092B005000C00022E08D1C9882B48FFF767
S214003E40ABFF431E9841C0B212B070BD02F000F93D
S214003E50210002F0CDF8002803D0C317181AC00FAF
S214003E60F2E7012E0BD1E2882149112A10DCD2B2EA
S214003E70002A0DD02800FFF733FF0120E4E7032EC9
S214003E80E2D1A378002B05D1E2881A49032AEEDD99
S214003E900A78EFE7022B05D1A27917492800FFF729
S214003EA049FFD1E7012B02D1A2791449F6E7032B8B
S214003EB0CAD1134B01A91868FFF7D0F9114B03A913
S214003EC01868FFF7CBF9104B05A91868FFF7C6F975
S214003ED00E4B07A91868FFF7C1F902F0B9F809A94F
S214003EE002F096F8A27901A9D8E7C046A8030020F8
S214003EF04E0901003A0901002C0901003E090100A3
S214003F000CA0800040A0800044A0800048A0800054
S214003F1073B5060048780D000B2811D805F00AFD89
S214003F20061D102E104348704C4F696C097801AA84
S214003F30002907D10223117051703000FFF7ACFE44
S214003F40012076BD0023137053702E4B1B78012B77
S214003F5000D1137002230021EFE78A780023012A9C
S214003F6004D101AA13705370274BEFE7254A13704C
S214003F70264A93699B0B9B039361E1E78C78012C9F
S214003F8006D10021204B01AA1C7011702300D4E733
S214003F90002C08D101201B4B1C4A187093699B0B00
S214003FA09B039361CDE7A9783000FFF711FCC7E7C4
S214003FB03000FFF73BFFC4E70123154ACBE70B7839
S214003FC00020DB06BDD13000FFF7BCFC2A20022112
S214003FD0AA780F4BFF301A600C4A13681C5C21430A
S214003FE04A241954FF34195D2938FF3801431955FE
S214003FF0D4E70123074AAEE78A78064B1A60B7E78C
S21400400000209EE7CA030020D2030020600800209C
S214004010580800205C0800204C4BF7B51C780700B9
S214004020002C00D091E04A4E33689B8B1B070ED5C0
S21400403021002000FFF724F9326810231100FF3119
S214004040887A03438B72434B1C6008239383336840
S2140040509A8B52071FD504229A833F4A1378002B67
S2140040600AD01378013BDBB213701378002B03D110
S2140040700121152000F09CF9384A1378002B0AD04D
S2140040801378013BDBB213701378002B03D10121A8
S214004090142000F08DF93368FF331A7AD20620D543
S2140040A010221A72597930320A435A7160232C4909
S2140040B038000A781A4235D1FFF72AFF002834D094
S2140040C0802233685242FF3399790A439A713368E3
S2140040D0FF331A7A520604D540221A72597A0A43D6
S2140040E05A72336807251C8C01239C43E4B2019363
S2140040F0E9B2002C29D0002D27D023002B41019AAD
S21400410013420DD02B00326808335B01D318DA79DE
S214004110D20711D4DB799B070ED4019BAB409C439E
S214004120013DE5E7FFF778FBC8E720220D4BCDE71A
S21400413003681B689847F0E70B4BAA00D058002886
S214004140F6D13800FFF7A8FAE7E7F7BD55080020D4
S2140041506008002058080020C9030020C80300207B
S21400416094050020FF000041AC03002010B5024873
S214004170FFF752FF10BDC046A80300208222024B64
S214004180D2051A607047C04660080020C0201A4951
S2140041901A4B1B4A10B54B60136A00061B021B0A1B
S2140041A003431362002407238C600B608021136A8C
S2140041B009061B021B0A0B4306211362114BDA6920
S2140041C0186A014319620821186A01431962D969FD
S2140041D011430D4A0A43DA6120001A21013400F027
S2140041E0E3F8252CF8D100F095F8052000F032F819
S2140041F000F00CF810BDC04610E000E07FBB0000E9
S21400420000ED00E000040040FF1700000C490D4BD5
S2140042104A681A42FCD140230B4A5360516819423F
S214004220FCD03F22094B99681142FCD102225A70F9
S214004230C22292009A81DA810122054B1A707047D9
S21400424000180040FD070000FC1800400030004247
S2140042506509002010B52A4B04001B78002B04D1FA
S2140042600122284B1A7000F055F8032C06D10721BE
S214004270200000F007F9002809D010BD042CF6D065
S214004280002C2BD1204A2149D3690B40D3610F2142
S2140042901F4B0C409A788A4314439C701A8C520524
S2140042A0FCD1197802320A431A701A8C5205FCD1D6
S2140042B0197E02320A431A761A8C5205FCD19A7974
S2140042C0D207FCD502219A8C1A788A431A701A8C67
S2140042D05205FCD10B4B01321A70CEE7052CD6D90D
S2140042E0094B0A49DA69063C0A40F021DA61DA69C4
S2140042F0240409030C401443DC610024C7E7C046CD
S214004300640900206609002000140040FFFFF0FF4B
S214004310000C00431E4B07211B6810B51A00DB0873
S2140043200A4012020B4013431A4A938513001A8C54
S2140043305205FCD118490432C8690243CA614022BA
S21400434016490A6008681042FCD007225A701932D3
S2140043505A811A8C5205FCD13F325A731A8C520578
S214004360FCD1C02252011A811A8C5205520DFBD183
S2140043701A731A8C5205FCD1094B01321A70094B7C
S2140043801B78002B02D10520FFF764FF10BDC04646
S21400439020608000000C004300140040F818004025
S2140043A0640900206609002010B500F06BF810BD07
S2140043B0F7B50C224243254D0190535D042B2FD0B8
S2140043C00027AA185278DB01214ED418A4192678A3
S2140043D0204CF6B21C59BC4204D0013797407C1ED4
S2140043E0A741FFB21B4C1C192469A4460024604652
S2140043F0A04204D001349440601E8441E4B2002FF1
S21400440017D101980C3778432D18686801290DD10B
S214004410012C06D1410706D4D3180D4A9B181E70EE
S214004420F7BD0107F8D504210E43F5E704218E43B6
S214004430F2E7012904D19140064A9B189961EFE7FB
S21400444001219140034A9B185961E9E7900C01004D
S21400445040280040002800400C235843074900230A
S214004460425C042A06D0064BD201D2180918136AF9
S2140044704A78D340012018407047C046900C01008F
S21400448000280040F7B50500242800D96BE00C236F
S21400449043437F4FDA5DFB18D8785C7801909878B4
S2140044A05B68042A5FD019267642B4468444664682
S2140044B0012E01D9884256D1CB40DB0701D41A28F9
S2140044C051D1081F172863D805F034FA36476464BC
S2140044D06262626250505D0C0C626262626262905E
S2140044E0924D624D0623002A00D18FE0694DD0011F
S2140044F0201840190578042028404D1F022D01D9A8
S21400450002252843019D2D0701D54025284372B674
S214004510D201002901D01A293ED10123A3405E49C9
S21400452051184B608B61042398435A4BA218D2183B
S214004530107062B60020FEBD0C235D437F19BB7A67
S214004540122B10D00023002A60D0524DD001201824
S2140045504019057804202840D2E70C235D437F19D4
S2140045607B7A162B4FD101204042E4E70C235D43B3
S2140045707F193B7A802BF6D0062301980340581EFD
S21400458083410433AFE70123019803400233DAE79F
S2140045900923A8E70123A6E78D1E012D0CD80123C9
S2140045A0A3403D4D55196B60032903D16B6104236D
S2140045B01843BAE7AB61FAE7012904D1A140364BAC
S2140045C0D3189960AFE76108344D51184919E507CB
S2140045D008D50F260D781B0135402B43DBB20B7038
S2140045E00123E5E70F260D78B543F6E70723AAE78C
S2140045F00823A8E72748D301E3181B1818780423D4
S2140046001840033B7EE7002AF4D10123022C02D097
S214004610052C00D06AE7062900D167E7651F6842C7
S21400462045411F48475D002F00D15FE7002702265F
S21400463047551C480778B7430770A027BF00013FBF
S214004640FDD13F2786683E42FCD1164E2F1DB4464C
S2140046507F00BC446646B7880226B7436646B780E6
S2140046600F4F3E78002E03D17F78002F00D13DE714
S21400467002270678374307703F2786683E42FCD1FC
S21400468001277D1BAF40C5792F42FCD02EE7C046E0
S214004690900C0100402800400028004030280040D0
S2140046A0670900200030004270477047704770B5B9
S2140046B00C002426050032000021200007F0B2FF7F
S2140046C0EB68266063600D23A360FEF7A5F8002262
S2140046D020611100A86801F023FF6061012070BD11
S2140046E070B50C002426050032000021200007F0DB
S2140046F099FFEB68266063600C23A360FEF78CF8D6
S21400470000212061A86801F05BFF6061012070BD98
S21400471010B5040001F020FA200010BD10B504000A
S21400472001F01AFA200010BD70B50400150001F063
S2140047303FFE074B25750833A361049B2000636288
S214004740044B24620833A362059B2463636370BD35
S214004750780901009409010010B501F03DFE10BD76
S21400476010B5027D0C00152A07D0162A0DD0084970
S2140047700B2A04D00B22074901E00B220649200031
S21400478009F094F80023E37210BD0B220349F6E704
S2140047906009010072090100660901006C09010048
S2140047A0037D152B06D0162B04D00B2B02D1024B03
S2140047B04B627047014BFBE740420F0080841E00AF
S2140047C070B50C00050028220021200007F02AFF03
S2140047D02100A868FFF7C4FF0123E360EB6821000F
S2140047E023610D23A8686361FFF7DAFFAB681A7DC3
S2140047F0152A0BD0162A0FD000230B2A0ED1E36100
S2140048008023084ADB05A261236270BD064BA361C4
S214004810064BE361064BF7E7064BF8E7A361E36157
S214004820F2E7C046000048420000A042000020C256
S214004830CDCCCC3D0000FA4270B50C000500282215
S2140048400021200007F0EEFE2100A868FFF788FF91
S2140048500123E360EB68210023610C23A8686361F1
S214004860FFF79EFFAB681B7D152B0AD0162B08D0D2
S2140048700B2B0CD1084BA361084BE361084B23625A
S21400488070BD084BA3610023E361074BF7E70023E5
S214004890A361E361F3E7C0460000A0420000A04128
S2140048A00000A0400000C842CDCCCC3D437A002B8F
S2140048B004D18372C372C36001334372704730B54C
S2140048C0040085B002AD00680291039201F041FA3F
S2140048D06B79227AE17900932068002301F050FB7F
S2140048E02979029A206801F007FA206801F028FA70
S2140048F005B030BD10B50400FFF7D8FF20790E21B3
S214004900FFF7C0FDA0790E21FFF7BCFD60790E21F0
S214004910FFF7B8FD024B200006CBFFF7D0FF10BD17
S2140049207C09002007B5837A00910192002B07D0FE
S2140049309A070AD5EFF3108253425341C37272B6F8
S2140049400099019AFFF7BBFF07BDDB07F8D58389FF
S214004950014AD360F4E7C04600240040837A002B67
S21400496005D09A0704D5C37A002B00D062B67047EC
S214004970DB07FCD5C368024A9BB21361F7E7C04663
S2140049800024004010B5006801F0ECF910BD70B5C9
S21400499006000C008D18AC4206D021783000FFF7D8
S2140049A0F1FF20700134F6E770BD0000094B0A4A9B
S2140049B01A6000225A711A71084B5A72084A1A6015
S2140049C023221A71023A9A71013A5A711F3ADA7121
S2140049D01A7270477C09002000093D006C0900200F
S2140049E08013002013B50A4C200001F003FF6A462E
S2140049F00123D3701371FA23DB00D3800023200039
S214004A00694693705370137001F09CFE16BDC04645
S214004A108409002010B5024801F00AFF10BDC04608
S214004A208409002070B50C4CC2B0200001F010FEC6
S214004A300600200001F012FE0500200001F014FE22
S214004A402B0002000549009602A808F0C1FE02A845
S214004A5000F036F942B070BD84090020EB09010071
S214004A6070B50C4CC2B0200001F0F2FD060020002C
S214004A7001F0F4FD0500200001F0F6FD2B00020019
S214004A800549009602A808F0A3FE02A800F002F965
S214004A9042B070BD84090020B009010070B50C4C0E
S214004AA0C2B0200001F0F2FD0600200001F0E2FD99
S214004AB00500200001F0E4FD2B00020005490096E9
S214004AC002A808F085FE02A800F0FAF842B070BD11
S214004AD084090020C709010010B5024801F0AAFDAC
S214004AE010BDC04684090020072800DD0720C34308
S214004AF0DB171840014B18607047C046880000203E
S214004B00F8B50E4E17003060FEF77EFB0023082433
S214004B100B4D2B703068FEF779FB00280AD1FA207F
S214004B20013CC000FDF7AEFE002CF3D13800FFF7C5
S214004B30DBFFF8BD01232B70F8E7C046880900208C
S214004B40850900200EB400B50C4BC2B01B78002BB4
S214004B5010D00B4B1B6883420CDBFFF781FF44AA87
S214004B60439902A8019209F0C7F9064B02A91868F2
S214004B70FDF738FF42B008BC03B01847850900208F
S214004B808800002088090020F0B51F00164BC1B031
S214004B901B780C001600002B24D0144B1B68834295
S214004BA020DBFFF75DFF124D002C08D011492200D4
S214004BB0684608F00DFE69462868FDF7EEFE3400EC
S214004BC0A31BBB420ADA22780B49684608F000FEAF
S214004BD069462868FDF7E1FE0134F1E707492868D1
S214004BE0FDF700FF41B0F0BD8509002088000020D9
S214004BF0880900204A0A01004E0A0100BE0801008A
S214004C00F7B501931E4B06001B7800911400002B8D
S214004C1034D01C4B1B68062B30DD019B1A4D002B35
S214004C2002D02B68002B12D02B68E718FF2F0ED867
S214004C3016482200C018009907F0D9FC341E2F60D1
S214004C4005D03F223100124808F030FE0024019BB8
S214004C50234313D02B68002B08D00D4F0B4A390086
S214004C600720FFF791FF00233B702B60002C05D038
S214004C702300009A31000720FFF786FFF7BDC046E5
S214004C8085090020880000208C0A00208C0900205E
S214004C90900A0020074B10B51B780100002B07D0A8
S214004CA0054B1B68062B03DD044B1868FDF775FEE5
S214004CB010BDC04685090020880000208809002015
S214004CC0074B10B51B780100002B07D0054B1B685F
S214004CD0062B03DD044B1868FDF784FE10BDC046A6
S214004CE0850900208800002088090020074B10B5A1
S214004CF01B780100002B08D0054B1B68062B04DD33
S214004D00044B0A221868FDF7CCFE10BD850900206A
S214004D1088000020880900201B4BF7B51B7806008A
S214004D200F00002B2ED0194B1B68062B2ADD0028FF
S214004D3000D1174E002F01D1164B1F88164D17496C
S214004D402868FDF74FFE00247B1E325D9C420ADA7F
S214004D501349684608F03CFD013469462868FDF7AB
S214004D601CFEA4B2F0E70F49684608F031FD69461C
S214004D702868FDF737FE09492868FDF733FE00224C
S214004D80044B1A80F7BDC046850900208800002025
S214004D90D20A0020D00A0020880900200D0A01004F
S214004DA0440A01004F0A010013B500206B46DC1DC3
S214004DB0D87108F03BFE201A16BD000010B5012180
S214004DC0054801F02FFF0549041E054800D0054997
S214004DD0FDF708FE200010BDF00E0020540A01006A
S214004DE08C030020610A0100F0B5C7B00C00050076
S214004DF0144903A801F094F9002306AE009301338A
S214004E002100FF3332001048802701F0C1FD022444
S214004E107F00315DFF2909D103A9280001F02AF996
S214004E2003A801F035F9280047B0F0BD03A8013407
S214004E3001F027FABC42ECD10449280001F070F9D1
S214004E40EEE7C046BE080100F00E0020620C01002E
S214004E50F0B5144985B00500002401F061F9032778
S214004E60114B1022195D01A801F0CEF901A9280006
S214004E7001F0F4F901A801F00BF92300661C3B4091
S214004E80032B05D10F2C06D00849280001F0ECF9B9
S214004E903400102EE4D1280001F048FA280005B0AE
S214004EA0F0BDC046BE080100911300200329010092
S214004EB0024B034A1B68106858437047FC0F0020DB
S214004EC000100020014B18687047C046FC0F0020F9
S214004ED0F0B50C0085B06B49050001F0E9F9002833
S214004EE015D0694901A801F01BF9210001A801F0BD
S214004EF0D2F901006548FDF76BFD01A801F0C8F87E
S214004F00200001F020FA624B186005B0F0BD614940
S214004F10280001F0CDF9002813D05F4901A801F060
S214004F20FFF8210001A801F0B6F901005748FDF787
S214004F304FFD01A801F0ACF8200001F004FA574B31
S214004F40E2E75749280001F0B3F9002814D0200002
S214004F5001F0F9F9534B5449186001A801F0E0F844
S214004F60210001A801F097F901004848FDF730FD3F
S214004F7001A801F08DF8C8E74C49280001F098F91F
S214004F80071E06D0200001F0DEF9494B494918609B
S214004F90E3E74949280001F08BF9061E28D02000D7
S214004FA001F0D1F9454B051E186011D101211020E2
S214004FB0FFF7FAF901211120FFF7F6F92900102072
S214004FC0FFF7F6F901211120FFF7F2F93C49C4E793
S214004FD00128FBD101001020FFF7E6F92900112077
S214004FE0FFF7E2F929001020FFF7E2F93900EAE7B7
S214004FF03449280001F05CF9002828D0200001F090
S214005000A2F9314B051E186011D101210F20FFF7C0
S214005010CBF901210C20FFF7C7F929000F20FFF775
S214005020C7F901210C20FFF7C3F9284995E70128A5
S214005030FBD101000F20FFF7B7F929000C20FFF77E
S214005040B3F929000F20FFF7B3F93100EAE720494A
S214005050280001F02DF9002806D0200001F073F991
S2140050601C4B1D49186078E71C49280001F020F900
S214005070002800D149E7200001F065F9184B1949CE
S21400508018606AE7BC0B0100C90B01008C03002006
S21400509000100020D90B0100E40B0100FC0F0020DB
S2140050A0F20B0100DC0E0020FC0B0100080C0100D6
S2140050B0E00E0020120C01001E0C0100E40E002081
S2140050C0250C01002E0C0100E80E0020350C010016
S2140050D03E0C0100D40E0020460C0100500C0100CE
S2140050E0D80E0020580C0100F0B5002195B03B48C2
S2140050F001F01CFC3A4C02A8210001F011F8210036
S21400510005A801F00DF8012108A8FFF76DFE2100A3
S2140051100BA801F005F80026012532490BA801F07E
S214005120C7F800284CD1310008A801F0D7F801785C
S21400513011A801F05BF811A90BA801F03EF811A820
S21400514000F0A6FF284F0BA8390001F0B1F8274958
S21400515001900BA801F0ACF843425841019B5A421B
S21400516053410340019308D00BA902A8002D00D19B
S21400517005A801F073F80136CFE739000BA801F057
S21400518097F8019D0028F6D102A90EA801F00BF8A9
S21400519005A911A801F007F811A90EA8FFF798FEB7
S2140051A011A800F075FF0EA800F072FF210002A8FB
S2140051B001F00BF8210005A801F007F80125DAE751
S2140051C00BA800F065FF08A800F062FF05A800F035
S2140051D05FFF02A800F05CFF15B0F0BDF00E0020E7
S2140051E0BE080100851B0100800A01005608010068
S2140051F0F0B587B004930CAB03921C4F04CB3D78FC
S2140052001B781B4C01936B01E41802910600010009
S2140052102000059208F015FB029BA360039BE36049
S214005220049B2361059B63610E9BA361019B012B7D
S2140052300CD0002323773B78320001330D4907203A
S2140052403B70FFF77FFC280007B0F0BD6B461B796C
S2140052500E9A237708492B00300002F095FE074986
S214005260020060770720FFF76DFCE4E7EC0E0020F5
S21400527004100020400B01008D5500002C0B01008F
S21400528010B543010248C0188368984710BDC04651
S2140052900410002070B50D000221040002F06FF823
S2140052A0C0B2002816D10100200002F040F8C0B2BB
S2140052B000280FD1280008F0CCFA290002002000B0
S2140052C002F041F8C0B2002804D10121200002F00B
S2140052D02EF8C0B270BD0000F0B5A7B01F002CAB12
S2140052E001911C7806A90500160002A8802202F08B
S2140052F00DF81C496401091902A8FFF7CBFF002826
S21400530003D06323180027B0F0BD31003A0002A88E
S21400531002F019F8061EF4D102A802F004F8C7B28B
S214005320040039B2280003F027FC03230028E9D044
S214005330E4B2220006A907F05AF9019B0A491F7039
S2140053400720FFF7FFFB230006AA08490720FFF700
S2140053501BFCFFF729FD064902000720FFF7F2FBBA
S2140053603300CFE7041000206F0A01005215010039
S21400537053130100F0B50600A9B04C36059205009F
S2140053800F0005AA0B2130001C0002F09BFD0390C5
S214005390002804D08423BB7000233B643EE0039ABD
S2140053A00F21300002F08EFD0290002801D18523E7
S2140053B0F1E7AD78012D00D081E06A46127B02ABA2
S2140053C0544902989A7502F053F80390002828D1A1
S2140053D002AB1635ED186B461B7B62012B704E4BED
S2140053E029009B181B6908A8984716212B7802A845
S2140053F00094091808AA386DFFF76EFF0400039D95
S21400540002AB9B7D220045490720FFF79BFB002C43
S2140054104FD1002D43D043233C64BB70002029B0FD
S214005420F0BD3F49029802F023F8029000286AD1A6
S21400543002000621300002F045FD061E18D002F0DC
S2140054404DF9002803D0012809D004240EE0324B81
S21400545064011C19607F02F0E7FD0400D0E72E4BC4
S21400546064011C19607F02F0F3FD0400029DC7E78B
S214005470172502ABED18284B62019B1828702900EF
S214005480DB6808A8984716212B7802A8009409180C
S21400549008AA386DFFF720FF35000400B0E702AB1E
S2140054A09B7D02223B643B003C331A704523BB7055
S2140054B0B4E7042C01D0142C29D186236BE7032DE6
S2140054C000D074E71726144B64011C19636908ACF6
S2140054D00493029B20009D7802ABF618029B357061
S2140054E059682A0008F0E2F96B461B7B31006355C9
S2140054F02000049B9847002803D144233864BB70DF
S2140055008CE7012801D1A12345E70428D5D0A023A4
S21400551041E7C046F30A010004100020FC0A01001F
S214005520F70A0100F7B5060000244C3601AA07006A
S2140055300D0030000B21019402F0C4FC300001AADB
S2140055400B2102F0BFFC0600A04217D00D4B1B78C3
S2140055509C4211DA0C496301C918300001F088FF3B
S214005560002806D12300019A29003800FFF702FF21
S214005570FEBD0134E4B2E9E78423AB700020286462
S214005580F6E7C046EC0E002004100020F0B50F250C
S214005590A7B002ABED1800230F0016000B4C2B70C3
S2140055A05301E4182200039009490720FFF7CAFABE
S2140055B0E368290006A898472B7806AA00963900C3
S2140055C00398FFF789FE27B0F0BDC0460410002000
S2140055D0560B010084238B70002363200B647047F6
S2140055E000B591B01549684608F02BF9144968468D
S2140055F008F010F96846FFF763FB1249684608F0A2
S21400560020F91149684608F005F96846FFF758FB87
S2140056100E4B0F4A0F49684608F0DAF86846FFF75F
S2140056204FFB0D48FFF74CFBFFF7BEFB0B49020094
S2140056300720FFF787FA11B000BDC0468E0A0100AA
S214005640AC0A0100B20A0100BF0A0100C50A010047
S214005650D10A0100DA0A0100BE0801005313010056
S21400566007B50122194B01001A700022184B194881
S2140056701A70914228D11849103208F017F90820FC
S2140056804042FFF7AFF9E121072249021348FFF72E
S21400569037FA01210920FEF787FE01210920FEF7CF
S2140056A087FE0023FA2201930D4BD2005A21009365
S2140056B00C48FF2303F0C8F803F094F83220FDF7F7
S2140056C0E1F8FFF78DFF07BD1022D6E78E00002019
S2140056D0EC0E002098000020860A01008C030020B3
S2140056E0BE080100F411002010B5034A0D2103483E
S2140056F001F0CAF810BDC0466C090020F00E00206C
S2140057007FB50500164901A800F00AFD154E3000C9
S214005710FDF71CFDC4B22E2C15D0FF2CF7D02100AF
S21400572001A800F0AEFD242C09D10F49280000F096
S214005730F7FC01A800F0ACFC280004B070BD232CD8
S214005740E5D10A49F2E7210001A800F09AFD002100
S21400575001A800F096FD01A9280000F08BFCE8E700
S214005760BE0801008C030020820A0100840A0100A2
S21400577010B586B06846FFF7C3FF1A49684600F0C2
S21400578097FD194C00280FD0012103A8FFF72CFB2A
S21400579003A92000FDF71CF903A800F079FC684671
S2140057A000F076FC06B010BD1049684600F080FD9B
S2140057B0002803D003A8FFF74BFBE9E7FFF7FEFA44
S2140057C001236A4619000A4801F004F9002804D0AB
S2140057D008492000FDF706F9E1E707492000FDF734
S2140057E0DCF8DCE7820A01008C030020840A010052
S2140057F0F00E0020720B01007B0B0100F8B5214B68
S2140058001B78002B3BD0204C2378002B09D01F4957
S2140058101F48FDF7E7F800211E4801F087F800232F
S21400582023701D4E3378002B26D11C4C0133236089
S21400583023680A2B10DC164D2800FDF75FFC071EB8
S2140058400BD02800FDF782FC154BC1B2280019705A
S214005850FDF7D2F801233370F8BD0A22216828002C
S214005860FDF71FF9FA208000FDF70CF823680A2BD5
S214005870DCD1044B1F70EFE7FFF77AFFECE703F08D
S214005880E7F8E9E78D0000208C000020820B01007D
S2140058908C030020F00E0020F40F0020F80F0020EC
S2140058A0F50F0020F8B505000E0017000024BC42D6
S2140058B008D02B68315D1B6828009847002801D067
S2140058C00134F4E72000F8BD704710B5183000F03A
S2140058D071F910BD10B5183000F05CF910BD70B548
S2140058E0837D0D00002B01D1002070BD60300400C8
S2140058F000F07EF90028F7D12000290000F03BF9DF
S2140059000120F2E710B5183000F068F910BD00006D
S214005910F7B50193FA23002504009B0083600A4B29
S21400592045600833036018300F00160000F018F9C1
S2140059302000603000F014F96B461B79276126754D
S214005940A57520006375FEBD6C0C010070B50400E3
S214005950006900F04FFA002828D0206900F058FAB5
S21400596000280ED1206900F05DFA002850D020698A
S21400597000F053FA00284BD0206900F058FA0028AF
S21400598046D1206900F002FA0321206900F008FAE7
S2140059902300B0331D68002D04D0236820001B6947
S2140059A09847A8472000183000F0F0F870BD20692E
S2140059B000F0ECF92069032100F0F2F9206900F00C
S2140059C036FA0028F2D02000603000F0DFF801231D
S2140059D0A375AC342368002BE8D09847E6E7183563
S2140059E0280000F005F9002807D0206900F0C6F965
S2140059F00321206900F0D4F9D8E7206900F01CFAEA
S214005A000100280000F0B7F8206900F0BFF9EFE7C2
S214005A10206900F007FA0028C9D1206900F0F3F9E0
S214005A200028C3D0206900F002FA25000028D6D04E
S214005A306035280000F0BEF8FF21002803D02800BB
S214005A4000F0A8F8C1B2206900F0C6F9A075ADE76D
S214005A5010B50248FFF77AFF10BDC046841000203C
S214005A6010B51723162202490248FFF751FF10BD52
S214005A70801300208410002010B50248FDF710FAAD
S214005A8010BDC0463811002010B50248FDF708FAD0
S214005A9010BDC046F411002010B50248FDF700FA0C
S214005AA010BDC046B0120020F7B584211A48C905BB
S214005AB000F0A9F819491A4800F0A5F8194F1A4934
S214005AC0380000F0A0F8194D1949280000F09BF89E
S214005AD0184E1949300000F096F81849184800F09A
S214005AE092F801240023310003260193220000943B
S214005AF01448FDF7A7F93900009601940A230B22F3
S214005B001148FDF79FF900962900019412231522EB
S214005B100E48FDF797F9F7BD6C130020000400420D
S214005B207013002074130020000800427813002031
S214005B30000C00427C1300200010004200040043CA
S214005B408013002038110020F4110020B01200202D
S214005B5010B506F017FD10BD10B506F01DFD10BD02
S214005B6010B540220021040006F05CFD0023200052
S214005B702364636410BD3F22036C01331340426C00
S214005B809A4202D0026C8154036470470023036477
S214005B9043647047426C036C9A4208D03F21436CC2
S214005BA0C25C436C01330B40436410007047012015
S214005BB04042FBE7036C406C181A00D54030704733
S214005BC0026C436C9A4204DB036C406CC01A3F3094
S214005BD07047436C006C181A0138F9E7426C036C86
S214005BE09A4202D0436CC05C704701204042FBE7FB
S214005BF003003F22006C5B6C01301040C01A434229
S214005C005841C0B2704701607047F0B505AC2578C2
S214005C100468981E471EB84126689207000632435D
S214005C200243072022600140AD016268294300203C
S214005C30022B00D05803114301436160F0BD10B53C
S214005C40C0240368A4031868120522400243C0203B
S214005C50090480020140114319605A6810435860D5
S214005C6010BD0122036819680A431A601A68D20731
S214005C70FCD4DA69D207F9D470470222036819689F
S214005C800A431A60DA699207FCD4704703681A7EE2
S214005C90D20702D41A7E9207FCD57047002203680A
S214005CA05A8370470368187E4007C00F7047036822
S214005CB0187EC0097047802302685B42117E0B4342
S214005CC0137670470368187EC007C00F70470368D6
S214005CD0188DC0B2704703681A7ED207FCD589B209
S214005CE0012019857047012203689A7570470122C2
S214005CF003681A757047000070B5012504684B08E4
S214005D002B402940206809075B070B4303432360A9
S214005D10044B5100186803F017FE0138C0B2207318
S214005D2070BDC046900000200122036819680A432F
S214005D301A601A68D207FCD4DA69D207F9D4704719
S214005D400222036819680A431A60DA699207FCD4CB
S214005D5070470368DA699207FCD402211A688A43FE
S214005D601A6070470268936A5B0A5B021943916285
S214005D70137E5B07FCD5906AC0B27047802302682A
S214005D80DB02116851680B43536070470368034990
S214005D901A685A680A405A607047C046FFFFFBFF01
S214005DA0036810B518680322C006400F094C052882
S214005DB009D1586811400904204001435960DA6946
S214005DC05207FCD410BD5868114009042040014316
S214005DD05960F7E7FFFFFCFF036800201A0028322F
S214005DE011701A7E520704D5588B01234007C00F46
S214005DF05840704703681868C006400F043843428E
S214005E005841C0B270470368187E4007C00F7047FD
S214005E100368187EC007C00F70470368588BC0061B
S214005E20C00F70470368187E8007C00F704703686E
S214005E30588B0007C00F704703681A68D206520FC7
S214005E40052A02D11A7E9207FCD528331878C0B2EC
S214005E50704700008422036830B5D205934211D003
S214005E60214A934234D0214A934234D0204A934266
S214005E7034D0204A934234D01F4A934227D10D2370
S214005E80182201E0082312220121032599401B480D
S214005E90C024016099082B40AB40FC359D4089002A
S214005EA00918A40008599200A843C0259D402B005D
S214005EB003430B51124BD1184023CB671149086896
S214005EC0114908600E495218D16F1942FCD030BDF6
S214005ED009231322D8E70A231422D5E70B23152219
S214005EE0D2E70C231622CFE7000400420008004247
S214005EF0000C0042001000420004004300E100E0F5
S214005F00041800408400002090000020F8B5160019
S214005F101D000268184B04000F009A4200D10126AB
S214005F202000FFF797FF2000FFF79BFE1C22BB0018
S214005F30134072072468120C134323608423A3754E
S214005F40012F18D11021012E00D008390B4B6943C0
S214005F501868C00003F0F8FC0722A3890240DB049F
S214005F605203DB0C1343A3810304A089DB0C400B14
S214005F7040031843A081F8BD0004004390000020B1
S214005F80F7B50700019308AB1E780D001400FFF765
S214005F90CBFE3800FFF75EFFC022240592031440B4
S214005FA0B2070C2607211643019A34430A40C0263E
S214005FB011008022B6022D043B683540920225432C
S214005FC00A431D605A60F7BD70B50E000025446890
S214005FD0002C0BD0236831005B682000984700280F
S214005FE002DB2D18E468F3E701256D42280070BD3A
S214005FF070B50D004468002C08D0236829009B6803
S21400600020009847002802D1E468F4E7200070BD1D
S21400601070B50D004468002C07D0236829002000C6
S214006020DB689847E4682D18F5E72C7070BD70B5EE
S2140060300D004468002C08D0236829001B68200047
S2140060409847002802D1E468F4E7200070BD0000FD
S2140060500121064A10B5136805480B4005D10224F5
S2140060600470241944704360116010BD841300202E
S21400607088130020002303600A68436002604A68B1
S214006080836042608A6882600B604B608B607047FA
S21400609010B50400006806F07FFA200010BD10B5A9
S2140060A004000068002801D006F076FA002323607A
S2140060B0A360636010BD70B504000D000068013178
S2140060C007F06AFB031E01D0012028C470BD0368D8
S2140060D010B50400002B04D043688B4201D3012086
S2140060E010BD2000FFF7E7FF0028F9D0A368002BBB
S2140060F0F5D122681370F2E770B50E0011000400A7
S2140061001500FFF7E4FF002804D12000FFF7C7FFC3
S214006110200070BDA5603100206807F092FBF7E70D
S214006120002370B504000D0003604360836099424D
S21400613007D0080007F08DFB290002002000FFF7BB
S214006140DBFF200070BD70B5050000680C0000285D
S21400615004D0096800290BD106F01EFA23682B60CC
S21400616063686B60A368AB6000232360636008E02D
S2140061706B68A2689342EFD307F063FBA368AB603B
S2140061800023A36070BD10B50B000400884205D044
S2140061900968002904D09A68FFF7AEFF200010BDFA
S2140061A0FFF77DFFFAE7002310B5040003604360A5
S2140061B08360FFF7E8FF200010BD10B504008142A1
S2140061C001D0FFF7C0FF200010BD70B504000D1E03
S2140061D009D0080007F03DFB290002002000FFF769
S2140061E08BFF200070BDFFF75AFFFAE7002313B5B8
S2140061F0040001AA117003604360836011005370AD
S214006200FFF7E3FF200016BD1FB5040000230800BB
S21400621023606360A36001A902F016FF01A92000B5
S214006220FFF7D3FF200004B010BDF8B504000F1E22
S21400623002D100263000F8BD0126002AFAD0836875
S214006240D5182900FFF743FF0028F2D02368A2687C
S2140062503900981807F0F5FAA560EBE710B58A68DC
S2140062600968FFF7E2FF10BD70B505000C00081EB8
S21400627006D007F0EEFA210002002800FFF7D5FF4F
S21400628070BD07B5002201AB19705A7019000132B3
S214006290FFF7CBFF0EBD10B58A6809680400FFF74C
S2140062A0C4FF002802D12000FFF7F9FE200010BD31
S2140062B0836810B5002B07D10120002903D00B7886
S2140062C058425841C0B210BD002902D103681B785D
S2140062D0F6E7006807F0ABFA0300F1E783688B4245
S2140062E003D903685818002B02D100230148037015
S2140062F07047C0469013002070B50D00002A06D0E7
S214006300002904D084689C4202D800230B7070BD1C
S214006310013AE41A944200D9140001682200C91810
S214006320280007F0C3FA00232B55F0E710B50468E1
S214006330002C07D02078002804D007F081FB2070BE
S2140063400134F7E710BD036810B5181E01D005F03C
S214006350EFFF10BD1FB50E4B00221B6800930D4BC0
S2140063601B6801930C4B1B6802930C4B1B68039332
S21400637003006946895804320C0E1C700C0C5C70C5
S2140063800C0A9C70D9700433102AF2D104B010BDE8
S2140063900CA0800040A0800044A0800048A08000A0
S2140063A010B50248FFF7D6FF10BDC0469113002077
S2140063B0074B10B50400417182710649186803F056
S2140063C0C3FAFA239B005843E060200010BDC04685
S2140063D08400002040420F0010B5040002214079DE
S2140063E0FDF7E2FF014BA36010BDC04630F8FFFF8B
S2140063F070B505000E0000246879FEF72DF8B0424F
S21400640004D1EA68631C944202D30024200070BDC5
S2140064101C00F1E770B5D0B00D000400FCF7FCF9E5
S214006420002D07D1A3683D4AC31A934202D8207CA8
S21400643050B070BD0025A060012160792571E5701F
S214006440A57065702570FDF7B3FFFA20FCF71AFA01
S21400645060790121FDF7A8FF60792900FDF7A8FF04
S2140064601420FCF70FFA72B601216079FDF7A0FF41
S214006470A0239B00013BFDD102216079FDF794FF2C
S214006480A023013BFDD129002000FFF7B1FFA84261
S21400649003D10020207462B6CAE701212000FFF76E
S2140064A0A7FF0028F5D0A026760000212000FFF7E1
S2140064B09FFF6B460121E8502000FFF799FF2B0055
S2140064C008356B445860B542EFD162B60022012110
S2140064D06846D300C0586B445E68002801D0002E82
S2140064E002D100202074A3E7D510635D5B00DBB209
S2140064F0B04210D301326355282AE9D16178237857
S21400650022795B18A1785B18E1785B18DBB29A42B7
S214006510E7D10120E6E70B43ECE7C046CF070000D3
S214006520F8B50D0011000400FFF774FF002807D02F
S214006530A379DAB20B2A05D002D3153B012B13D967
S214006540194810E0A07803F0EDFF002D0BD005F001
S214006550D7FD164A164B04F06FFF0022154B04F0C9
S21400656027F805F01FFEF8BD7F20A678304003F020
S21400657089FF8721C90503F02DFE071CE07803F08C
S21400658081FF391C03F0ECFB05F0BAFD0A4A0B4B01
S21400659004F052FF76B205F005FE002ED5DA802311
S2140065A01B06C018D1E7C0460000C07FCDCCCCCCBF
S2140065B0CCCCFC3F000040409A9999999999B93FF4
S2140065C070B500210400FFF725FF002807D0A37947
S2140065D0DAB20B2A05D002D3153B012B05D90E489B
S2140065E002E0207803F09EFF70BD207803F09AFF4B
S2140065F08721C90503F0EEFD051C607803F042FF15
S214006600291C03F0ADFB05F07BFD044A044B04F0A7
S21400661013FF05F0C7FDE7E70000C07F9A99999938
S2140066209999B93F024B1869431E9841C0B270470A
S21400663000200040002303707047000010B5FFF7ED
S214006640F1FF0028FBD1014B986910BD00200040E7
S21400665010B5FFF7F3FF3F23184010BD10B5FFF746
S214006660EDFF0005800E10BD10B5FFF7E7FFC00375
S214006670C00E10BD10B5FFF7E1FF8002C00E10BDC2
S21400668010B5FFF7DBFF8001000F10BD10B5FFF758
S214006690D5FF800E10BD0000C888094BCA78C01808
S2140066A0830608795204800510430A7810438A78D6
S2140066B0120310434A789201104318437047C046AD
S2140066C030F8FFFFFA2010B51F248B0EC0001B18F1
S2140066D0480C2040D0703F20D3808B011B0F1371D5
S2140066E00B0B234093708B090340014053701170CD
S2140066F010BD000010B5FFF795FF0028FBD1022162
S214006700054B064A1A819A811A888A431A80FFF72F
S21400671089FF0028FBD110BD00200040FF81FFFF4D
S21400672010B5FFF77FFF0028FBD10223044A11882B
S2140067300B431380FFF776FF0028FBD110BDC04641
S2140067400020004070B50500FFF7A6FF0600FFF723
S21400675069FF0028FBD10B4C2800FFF7CBFFA66192
S214006760FFF760FF0028FBD1802223881202134324
S2140067702380FFF757FF0028FBD12800FFF7D0FF44
S21400678070BDC046002000401FB50E4B0400994265
S21400679000D2190001A8019105F0EEFD037B02A9C5
S2140067A0CB700369084A01330B7143699B18CB8091
S2140067B0037A8B7003794B70036820000B70FFF729
S2140067C0C1FF1FBD80436D386C07000010B5FFF792
S2140067D091FFFFF727FF0028FBD10123044A118809
S2140067E00B431380FFF71EFF0028FBD110BDC046E9
S2140067F000200040802310B5094A5B005169040060
S2140068000B4353610422074B1A61FFF7DFFF064A6A
S214006810064B20001A80FFF783FF0123237010BD6C
S2140068200004004000100040088BFFFF00200040DE
S21400683030B5134C8DB023680500002B03D1FFF74D
S214006840D9FF012323602800FFF7F8FE01AC010002
S21400685022002800FFF736FFE3880A4A03A89B18A1
S21400686008932379013B0793E3780693A37805936F
S214006870637804932378039305F0A8FF0DB030BD2A
S214006880A413002094F8FFFFF8B5254B1600FF224E
S214006890036000230D00522142748274C274027594
S2140068A0421C43710371037243778377C377D377B0
S2140068B02A3211700531517000220400194F836787
S2140068C0C3670263390012229C3005F090FE200058
S2140068D0390048221431B03005F089FE2000390016
S2140068E009225C31F83005F082FE3900A01C6531C3
S2140068F0FF30032205F07BFE0B4BE6609E420CD178
S2140069000A232800637525740121FDF74DFD207CC0
S2140069100121FDF74DFD2000F8BD0B23F1E7C04631
S21400692000093D004C0E01006C09002070B5437D47
S21400693004000D000B2B02D0C068FDF7DBFF237AA6
S214006940002B07D11B226270643A2370A270E3709A
S214006950237163712900200000F0E4FB050020008D
S21400696000F0A0FA00232000A37700F095FB280093
S21400697070BD000010B5054C002901D1207810BD6F
S2140069802178012200F06EFCF8E7C046041B0020C8
S214006990F7B51E0008AB1B78170001930A003300FA
S2140069A00321040000F0E2FA051E10D0019B0B2123
S2140069B0002B00D10321200000F0AAF920003300AC
S2140069C03A00032100F0FEF9200000F06BFA2800E0
S2140069D0FEBD0000F0B589B09668040010006A4657
S2140069E000AF7B60731CFB610733DB08DB00D31A48
S2140069F09D467961FB60721C00236946FFF77CFCAC
S214006A00200000F061FA051E02D00023BB6174E08E
S214006A1004227969200000F02FF90028F5D0721DB5
S214006A207969200000F0A4F90028EED07C49200007
S214006A3000F058FA0028E8D00121200000F078FA8B
S214006A400028E2D00221200000F062F9FA69260050
S214006A50EA402C36D2B231782000083500F0ACF986
S214006A60202DF3D10121207CFDF7A2FC200000F0B0
S214006A7019FA7B69FA69043319002000BB6000F03C
S214006A80FBF80028C1D06649200000F02BFA002849
S214006A90BBD00121200000F04BFAB8610028B4D02A
S214006AA080253B7D6D00ED1AFB69ADB2AB4228D860
S214006AB0207C0021FDF77CFC31780222200000F0CB
S214006AC07BF9200000F0FCF80025FB69AB420AD9F0
S214006AD0FB6820005A5D23002C331978013500F03E
S214006AE06BF9ADB2F1E7207C0121FDF761FC7B6814
S214006AF0002B4FD1200000F0D5F9BD46B86909B08B
S214006B00F0BDBB8B7B6100233B617B69AB4200DC45
S214006B101D00207C0021FDF74BFC23002C33197848
S214006B200222200000F048F9200000F0C9F80026F4
S214006B30AE420CDA3A69FB6820009B189A5D230087
S214006B402C331978013600F037F9B6B2F0E7207C1E
S214006B500121FDF72DFCA36F31495B19A3673B6943
S214006B6020005B199BB23B617B695D1BABB27B610E
S214006B7000F0B8F9002800D147E70121200000F016
S214006B80D7F9002800D140E780257B696D00002BEF
S214006B90BBD1ACE76B46224920007B6100F0A2F92E
S214006BA0B861002838D06A46BB68207CA367FB69BA
S214006BB000210733DB08DB00D31A9D46FDF7F8FB00
S214006BC023002C3319780322200000F0F5F820006B
S214006BD06E4600F075F80025FB69AB420AD9230023
S214006BE02B3319780022200000F0E6F870550135A6
S214006BF0EDB2F1E7200000F055F90023FA699A4259
S214006C0007D9FA68F15CD25C914205D10133DBB258
S214006C10F4E77B699D4670E77B699D46F5E6C046CE
S214006C2000CA9A3B030070B554331D7804000A006E
S214006C30002D05D12A000C2100F014FB280070BDA1
S214006C408023EF215B0200F091F9051EF6D02300A9
S214006C5055331978200000F05BF8200000F022F988
S214006C60A16D200000F03EF90500E7E710B5C0680A
S214006C70FDF788FE10BD0000F8B50F0000210500E6
S214006C801600FFF777FEF72303400020032B08D0FB
S214006C90EC6B844206D109482200012102F0ECF98F
S214006CA02000F8BDBE19B44204D8361BEE67AF67A5
S214006CB00120F6E70023EB67F9E7C046041B002037
S214006CC010B5C37F0400002B04D003007B33197873
S214006CD0FFF7CCFF23007A3319782000FFF7C6FFB2
S214006CE02300793319782000FFF7C0FF230078339C
S214006CF019782000FFF7BAFF012010BD10B5016813
S214006D0004004268C068FDF70DFE0120607710BDE4
S214006D1070B5437F04000D00002B01D1FFF7EEFF96
S214006D20207C0021FDF744FB0B2D15D005D8022D45
S214006D3009D0032D07D0290016E0522D03D0D82DF8
S214006D4001D0202DF7D129002000FFF78FFF20006B
S214006D50FFF7B6FF012070BD29002000FFF786FF71
S214006D602000FFF7ADFFEE212000FFF77FFFF1E7E1
S214006D7070B50321040016000025FFF7C9FFB542D1
S214006D8012D00021E068FDF7FDFDFF280AD0207C28
S214006D900121FDF70DFB07480022072102F06CF9E0
S214006DA0002070BD0135EAE7207C0121FDF700FBDD
S214006DB00120F6E7041B002010B51100C068FDF79F
S214006DC0E1FD10BD10B50C0011001A00022C01D018
S214006DD0032C02D1C068FDF7DAFD10BD70B50400C3
S214006DE00521FFF795FF0021E068FDF7CBFD251D87
S214006DF0E877207C0121FDF7DBFAE87F70BD70B5EF
S214006E0004001521FFF784FF0021E068FDF7BAFDB6
S214006E10A51DE877207C0121FDF7CAFAE87F70BD42
S214006E2070B506000124FFF7EAFF20420ED1B72115
S214006E303000FFF76DFF307C2100FDF7B9FA300017
S214006E40FFF7DDFF2040051E02D0F477200070BD5E
S214006E5002000D21024802F00FF92C00F6E7C046AA
S214006E60041B002070B505000124FFF7C8FF204270
S214006E7012D0E9212800FFF74BFF287C2100FDF700
S214006E8097FA2800FFF7BBFF204007D000220E210C
S214006E90034802F0F1F80024200070BDE877FBE715
S214006EA0041B002010B504000121007CFDF780FAC9
S214006EB0E37F002B02D02000FFF7D4FFE068FDF749
S214006EC04DFD0023637710BD10B5847F002C04D0E1
S214006ED000220F21024802F0CFF8200010BDC04665
S214006EE0041B0020F8B506000C002023013BFDD152
S214006EF0FBF798FC012705003000FFF76FFF331DF6
S214006F00DB7F3B4201D10120F8BDFBF78BFC401B29
S214006F10A042F1D3FBF786FC401B8442F3D803481B
S214006F200022042102F0A8F80020EDE7041B002050
S214006F3070B504000D000621FFF7EAFE207C012153
S214006F40FDF736FA2000FFF749FF0224044009D176
S214006F50002D05D022000621034802F08DF82500FA
S214006F60280070BD0125FBE7041B0020F8B51E00B5
S214006F70030037331B7804000F001500EF2B14D0E6
S214006F80022F1BD0EF2F37D02000FFF79DFF0028E1
S214006F9012D1320029002000FFF76EFE00280BD029
S214006FA01B492000FFF79EFF07E01A4B9A42E7D9DD
S214006FB0FFF736FF0028E3D10020F8BD2000FFF7DA
S214006FC083FF0028F8D1320029002000FFF754FE86
S214006FD00028F1D0320029002000FFF7C9FE002863
S214006FE0EAD00B492000FFF77DFF0028E4D00121FE
S214006FF02000FFF79DFFE0E72000FFF765FF002871
S214007000DAD1320029002000FFF736FEE7E7C04657
S21400701000CA9A3BFFFFFF0010B504000421FFF7EB
S21400702077FE207C0121FDF7C3F9012010BD00008A
S21400703070B517490400FFF755FF051E25D09F21A0
S2140070402000FFF765FE26000021E068FDF79AFCA9
S214007050373630700021E068FDF794FC23003833A3
S21400706018700021E068FDF78DFC23003933187096
S214007070207C0121FDF79CF93478002C05D12200F4
S2140070800B21044801F0F8FF2500280070BDC0461B
S21400709000CA9A3B041B0020030070B538331B78E7
S2140070A00400252B1CD1FFF799FE231DDD7F3C2312
S2140070B0502120009D43FFF72BFE207C0121FDF789
S2140070C077F901212000FFF723FE29002000FFF7B3
S2140070D0CDFD207C0121FDF76BF90125280070BD50
S2140070E00125262BFAD10E49FFF7FCFE051EF5D02A
S2140070F001212000FFF71CFFA023013BFDD19821B2
S2140071002000FFF705FE207C0121FDF751F9C8237A
S2140071109B00013BFDD12000FFF77EFFDEE7C04667
S21400712000CA9A3B0200F8B5012364321370103A85
S2140071301370083A1370083A137003002022453380
S2140071401A7032321A7286321A74414B00228364E5
S214007150404B05000365404B6535836503005C3393
S2140071601A7060232B703D4B0400836603000132C7
S2140071707233FF321A800E00FFF75AFF2300A21C5C
S21400718037331978FF32C1331878884227D1230065
S214007190012235331A70230022003833FF321B7861
S2140071A09078984205D0D078984202D012799A42C8
S2140071B001D1C7232B70230035331D78002D32D024
S2140071C027003937C22911D13B78132B0BD0142B4B
S2140071D01BD000220221224801F04EFF06E00133B8
S2140071E09342D1D1D7E78023DB03E36300233A78C9
S2140071F019009C31615C91420AD12C339B001B59CB
S2140072003434A3600123237012E080231B04ECE7D0
S2140072100133122BECD1E36B002B08D1002E0FD0DC
S214007220E6633434EFE736342578002D02D00125A6
S2140072302800F8BD2A000221094801F01DFFF7E7E3
S21400724032000321064801F017FF3500F0E7C0467C
S21400725000CA9A3B0050D6DC004059730000DD0E91
S214007260041B002010B5024801F006FF10BDC04602
S214007270041B0020F7B584460D00019216BAD3B25F
S2140072800024172A0AD91300183BE72B11D9531EDE
S2140072901C49FF3B8B420FD819230224A968686853
S2140072A00F19B8420BD201230124EB606442200080
S2140072B0FEBD18230124F1E71A230424EEE76046F6
S2140072C04F1C1843AF600870002CF0D0022C0ED074
S2140072D0042C15D00823012CE6D1220001A9A868A9
S2140072E005F085F9AB681C19AC600024DFE7064999
S2140072F0130292B20B40120A1A4392B20192ECE7C2
S2140073000196EAE7FFFE000000FFFF0070B50500EB
S2140073100C0016000021102205F084F92C60AC60E9
S214007320A4196C6070BD83680068181A7047002343
S21400733010B50A00994201DACA432033010018004A
S214007340FFF798FF10BDF8B504000F00010060209D
S2140073501500FFF78FFF061E07D1A06863681B1A8B
S2140073609D4204DD0123013EE3603000F8BD2A00A3
S214007370390005F03CF9A3685D19A560F5E710B57E
S2140073800A000100A020FFF775FF10BD4288436881
S214007390012A03D0022A03D0002000E018787047A4
S2140073A05878FCE73F2210B501650B791D249343FE
S2140073B0402B16D10B1D03610B79303A9B069B0FB1
S2140073C003700B791A4042704B7983708C79CB79B5
S2140073D024021B190024838004640831063005F05B
S2140073E006F9200010BD4368186800BA7047000010
S2140073F070B5020005000C0007200949FDF7A2FB46
S2140074000C200849084B0A785043C5521B18043311
S21400741021CC21C3032301321A4000200A7070BD1C
S214007420D70E0100E0140020B014002070B5020052
S21400743005000C0007200C49FDF784FB00220C21F8
S2140074400A4B1600042A0DD00800013250430C38AF
S214007450185AA842F5D171435B185A6821009868FB
S214007460904770BD0C20FCE7B40E0100B01400205D
S21400747070B503000C00012000290AD05D8858680A
S2140074802A0006F002FA002803D1200006F0E1F9EF
S214007490281A70BDF0B50024124D85B001900394F3
S2140074A02C70019803AA0B214C3000F00BFD061E31
S2140074B012D043881B19FF2B11DC2F23671C2B557A
S2140074C0EC1942884168200005F091F80022738884
S2140074D0E2547488E419E4E7280005B0F0BD002003
S2140074E0FBE7C046AA13002010B5C0B000236A46CA
S2140074F0137003780400294A002B06D0284A012B73
S21400750003D0284A022B00D0274A28490720FDF737
S21400751019FBA3781F221900914336D1244A012B68
S21400752009D0244A022B06D0234A032B03D0234A31
S214007530042B00D0224A23490720FDF703FB200036
S214007540FFF7A8FF03780100002B02D0684606F07C
S21400755061F9200000224C300F2100F0B3FC041E1D
S21400756008D01949684606F055F962886168684689
S21400757006F076F96B461B78002B04D06A46134952
S2140075800620FDF7DFFA40B010BD114A402903D0AF
S214007590104A802900D0104A1049CDE79310010008
S2140075A08F1001009B10010097100100DB100100F6
S2140075B0A41001009F100100A8100100B2100100E5
S2140075C0AC100100EC100100750901000A11010061
S2140075D0C6100100CE100100B9100100FD10010018
S2140075E070B50F260B781D11ACB233400C2D13DD91
S2140075F00D2D06D14C780B3D0D340C2B0ED89BB2BE
S21400760011E00E2D24D18C784D780E342D02FF34E7
S2140076106419A4B20325F0E70125EEE70D2B0DD182
S2140076204B5D01350D33954212DC5E19B2420FDB1D
S2140076304919048043804160300070BD0E2C07D18C
S2140076404E5D4B195B7836029B190E33FF33D6E737
S21400765001267642F0E70000F7B50E008621038883
S214007660050049008B4234DC47888F4231DC01A993
S2140076700C2B12DC1B010B706B465C1D0C2F13DCF5
S2140076800B783B430B70641A3F19974215DD0320B5
S2140076901149FDF757FA0020FEBD0D3BD0204B7078
S2140076A06B4608709C1DE9E70D23087803430B70B2
S2140076B03B000D3B23700134E5E72200300004F068
S2140076C096FF6A883019696804F09AFF688800197E
S2140076D0E2E701204042DFE7F60E010010B54288DF
S2140076E00300042A06D92021144B154AFF311548F9
S2140076F004F000FE013A0020032A06D8100002F02B
S21400770019F902050C195B68187810BD5B681B88B0
S214007710180A1B02184380B2F7E75B680A491B6821
S21400772018021A040A40000E1043FF2212021340E9
S2140077301843EAE71800FFF756FEE6E71F0F0100BA
S21400774042110100390F010000FFFF0010B542880A
S2140077500300042A06D93621144B154AFF31154872
S21400776004F0C8FD013A0020032A06D8100002F0F3
S214007770E1F802050C195B68187810BD5B681B8879
S214007780180A1B02184380B2F7E75B680A491B68B1
S21400779018021A040A40000E1043FF221202134079
S2140077A01843EAE71800FFF71EFEE6E71F0F010082
S2140077B01D110100390F010000FFFF0010B5054C38
S2140077C02388002B02D1FDF725F920802088431C52
S2140077D0238010BDA81300200B00F0B504338BB037
S2140077E005930B88060002934523049113700392B9
S2140077F0029B059A53490720FDF7C6F90499300005
S214007800FFF7D0FD019000283DD101277578B378A9
S2140078100435B764B561002B35D001F04BF9029BF7
S2140078201038834232DC019C0797059B08A85F1935
S214007830029B39005A1BFFF7D3FE0690002863DD33
S21400784008AB1B884049E418A4B208AB5B8822004A
S2140078500720FDF777F908AB5B88099A3B490720B4
S214007860FDF792F9300008AB19004C301C8000F090
S214007870E7FA071E10D036490120FDF763F9A0236A
S214007880039A0197137001980BB0F0BD8D23039AED
S2140078901370833B0193F6E7069BED180F2C20D858
S2140078A00E2CC2D2072CC0D010D8032CBDD0062C6C
S2140078B022D0079B1C42B8D0220026490320FDF7A1
S2140078C041F98223039A1370813BE3E70B2CACD07B
